S0260000666F6C6C6F776D655F6361725F4D53535F4D53535F434D335F305F6170702E737265630F
S315600000000000012099020000090300000B030000B4
S315600000100D0300000F030000110300000000000044
S315600000200000000000000000000000001303000054
S31560000030150300000000000017030000190300000C
S315600000401B0300001D0300001F03000021030000C6
S315600000502303000025030000270300002903000096
S315600000602B0300002D0300002F0300003103000066
S315600000703303000035030000370300003903000036
S315600000803B0300003D0300003F0300004103000006
S3156000009043030000450300004703000049030000D6
S315600000A04B0300000000000000000000000000009C
S315600000B00000000000000000000000004D0300008A
S315600000C04F03000051030000530300005503000076
S315600000D057030000590300005B0300005D03000046
S315600000E05F03000061030000630300006503000016
S315600000F067030000690300006B0300006D030000E6
S315600001006F030000710300007303000075030000B5
S3156000011077030000790300007B0300007D03000085
S315600001207F03000081030000830300008503000055
S3156000013087030000890300008B0300008D03000025
S315600001408F030000910300009303000095030000F5
S3156000015097030000990300009B0300009D030000C5
S315600001609F030000A1030000A3030000A503000095
S31560000170A7030000A9030000AB030000AD03000065
S31560000180AF030000B1030000B3030000B503000035
S31560000190B7030000B9030000BB030000BD03000005
S315600001A0BF030000C1030000C3030000C5030000D5
S315600001B0C7030000C9030000CB030000CD030000A5
S315600001C0CF030000D1030000D3030000D503000075
S315600001D0D7030000D9030000DB030000DD03000045
S315600001E0DF030000E1030000E3030000E503000015
S315600001F0E7030000E9030000EB030000ED030000E5
S31560000200EF030000F1030000F3030000F5030000B4
S31560000210F7030000F9030000FB030000FD03000084
S31560000220FF03000001040000030400000504000051
S3156000023007040000090400000B0400000D04000020
S315600002400F040000110400001304000015040000F0
S3156000025017040000190400001B0400001D040000C0
S315600002601F04000021040000230400002504000090
S3156000027027040000290400002B0400002D04000060
S315600002802F04000031040000330400003504000030
S315600002903704000039040000684880476848002831
S315600002A00BD168486849694A884206D091421CBFAA
S315600002B050F8043B41F8043BF8D165486549664A05
S315600002C0884206D091421CBF50F8043B41F8043B7B
S315600002D0F8D162486249634A914218BF41F8040BFB
S315600002E0FAD10000000000000000000000000000DD
S315600002F0DFF874010FF2030E00474FF000004FF075
S315600003000001DFF868F1FEE7FEE7FEE7FEE7FEE7DD
S31560000310FEE7FEE7FEE7FEE7FEE7FEE7FEE7FEE74F
S31560000320FEE7FEE7FEE7FEE7FEE7FEE7FEE7FEE73F
S31560000330FEE7FEE7FEE7FEE7FEE7FEE7FEE7FEE72F
S31560000340FEE7FEE7FEE7FEE7FEE7FEE7FEE7FEE71F
S31560000350FEE7FEE7FEE7FEE7FEE7FEE7FEE7FEE70F
S31560000360FEE7FEE7FEE7FEE7FEE7FEE7FEE7FEE7FF
S31560000370FEE7FEE7FEE7FEE7FEE7FEE7FEE7FEE7EF
S31560000380FEE7FEE7FEE7FEE7FEE7FEE7FEE7FEE7DF
S31560000390FEE7FEE7FEE7FEE7FEE7FEE7FEE7FEE7CF
S315600003A0FEE7FEE7FEE7FEE7FEE7FEE7FEE7FEE7BF
S315600003B0FEE7FEE7FEE7FEE7FEE7FEE7FEE7FEE7AF
S315600003C0FEE7FEE7FEE7FEE7FEE7FEE7FEE7FEE79F
S315600003D0FEE7FEE7FEE7FEE7FEE7FEE7FEE7FEE78F
S315600003E0FEE7FEE7FEE7FEE7FEE7FEE7FEE7FEE77F
S315600003F0FEE7FEE7FEE7FEE7FEE7FEE7FEE7FEE76F
S31560000400FEE7FEE7FEE7FEE7FEE7FEE7FEE7FEE75E
S31560000410FEE7FEE7FEE7FEE7FEE7FEE7FEE7FEE74E
S31560000420FEE7FEE7FEE7FEE7FEE7FEE7FEE7FEE73E
S31560000430FEE7FEE7FEE7FEE7FEE700004507000091
S31560000440010000007004006070040000C80700002E
S31560000450C8070060000000200400002000000000C3
S315600004600400002008000020510700008D060000EF
S3156000047040F20403C2F200031A780AB90120187028
S31560000480704700BF40F20000C2F2000008B5036882
S315600004902BB140F20003C0F2000303B1984708BDD8
S315600004A080B500AF00F002F880BD00BF80B500AF38
S315600004B04FF001004FF001014FF000024FF00003D2
S315600004C000F06EF880BD00BF80B582B000AF786086
S315600004D04FF001004FF001017A687B6800F060F828
S315600004E007F10807BD4680BD80B582B000AF786071
S315600004F04FF000004FF000017A687B6800F050F81A
S3156000050007F10807BD4680BD80B582B000AF786050
S315600005104FF001004FF000017A687B6800F040F808
S3156000052007F10807BD4680BD80B582B000AF786030
S315600005304FF000004FF001017A687B6800F030F8F8
S3156000054007F10807BD4680BD80B582B000AF786010
S315600005507B684FEAD37213444FEA63034FF001009E
S315600005604FF001017A6800F01BF807F10807BD46F5
S3156000057080BD00BF80B582B000AF78607B684FEA0F
S31560000580D37213444FEA63034FF001004FF0010149
S315600005901A467B6800F004F807F10807BD4680BD7F
S315600005A080B489B000AFBA607B600346FB730B46CC
S315600005B0BB7340F20003C4F205033B614FF00003D6
S315600005C07B614FF00003BB614FF00003FB61BB68CA
S315600005D0002B1AD040F2A073C0F200031B68BA6801
S315600005E002FB03F248F21F53C5F2EB1383FB0213BF
S315600005F04FEA63114FEAE273C3EB010240F2A47360
S31560000600C0F200031B681344BB617B68002B1AD0E1
S3156000061040F2A073C0F200031B687A6802FB03F223
S3156000062048F21F53C5F2EB1383FB02134FEA6311C3
S315600006304FEAE273C3EB010240F2A473C0F2000317
S315600006401B681344FB61BB7B7A6982EA03037B61A7
S31560000650FB7B4FEA43037A6982EA03037B61FB69AA
S315600006604FEA83037A6982EA03037B61BB694FEAD7
S3156000067043237A6982EA03037B613B697A691A607C
S3156000068007F12407BD4680BC704700BF80B582B0C5
S3156000069000AFFFF705FF4FF000033B604FF000032C
S315600006A07B603A6848F27F43C0F21E039A42D4BF29
S315600006B000230123DBB23A6802F101023A60002BA3
S315600006C006D07B6803F101037B604FF000033B605B
S315600006D07B68062B31D801A252F823F0F906000098
S315600006E0030700000D070000170700002107000040
S315600006F02B070000350700004FF03200FFF7E4FEDD
S315600007001FE04FF03200FFF7EFFE1AE04FF01E00D9
S31560000710FFF7FAFE15E04FF01E00FFF705FF10E049
S315600007204FF02800FFF710FF0BE04FF02800FFF7AF
S3156000073021FF06E0FFF7BAFE03E04FF000037B609F
S31560000740AFE7AEE780B400AFBD4680BC704700BF80
S3156000075070B540F2C07640F2C075C0F20006C0F2D5
S315600007600005761BB61006D0002455F824300134F7
S315600007709847A642F9D840F2C07540F2C476C0F2F6
S315600007800005C0F20006761B00F00EF8B61006D023
S31560000790002455F8243001349847A642F9D870BD34
S315600007A03200000028000000F8B500BFF8BC08BCA5
S315600007B09E467047F8B500BFF8BC08BC9E467047B9
S30D600007C08504000071040000CD
S309600007C800000000C7
S705000002995F
