:020000042000DA
:100000000000012099020020090300200B030020BA
:100010000D0300200F03002011030020000000004A
:10002000000000000000000000000000130300209A
:100030001503002000000000170300201903002012
:100040001B0300201D0300201F03002021030020AC
:10005000230300202503002027030020290300207C
:100060002B0300202D0300202F030020310300204C
:10007000330300203503002037030020390300201C
:100080003B0300203D0300203F03002041030020EC
:1000900043030020450300204703002049030020BC
:1000A0004B030020000000000000000000000000E2
:1000B0000000000000000000000000004D030020D0
:1000C0004F0300205103002053030020550300205C
:1000D00057030020590300205B0300205D0300202C
:1000E0005F030020610300206303002065030020FC
:1000F00067030020690300206B0300206D030020CC
:100100006F0300207103002073030020750300209B
:1001100077030020790300207B0300207D0300206B
:100120007F0300208103002083030020850300203B
:1001300087030020890300208B0300208D0300200B
:100140008F030020910300209303002095030020DB
:1001500097030020990300209B0300209D030020AB
:100160009F030020A1030020A3030020A50300207B
:10017000A7030020A9030020AB030020AD0300204B
:10018000AF030020B1030020B3030020B50300201B
:10019000B7030020B9030020BB030020BD030020EB
:1001A000BF030020C1030020C3030020C5030020BB
:1001B000C7030020C9030020CB030020CD0300208B
:1001C000CF030020D1030020D3030020D50300205B
:1001D000D7030020D9030020DB030020DD0300202B
:1001E000DF030020E1030020E3030020E5030020FB
:1001F000E7030020E9030020EB030020ED030020CB
:10020000EF030020F1030020F3030020F50300209A
:10021000F7030020F9030020FB030020FD0300206A
:10022000FF03002001040020030400200504002037
:1002300007040020090400200B0400200D04002006
:100240000F040020110400201304002015040020D6
:1002500017040020190400201B0400201D040020A6
:100260001F04002021040020230400202504002076
:1002700027040020290400202B0400202D04002046
:100280002F04002031040020330400203504002016
:100290003704002039040020684880476848002857
:1002A0000BD168486849694A884206D091421CBF10
:1002B00050F8043B41F8043BF8D165486549664A6B
:1002C000884206D091421CBF50F8043B41F8043BE1
:1002D000F8D162486249634A914218BF41F8040B61
:1002E000FAD1000000000000000000000000000043
:1002F000DFF874010FF2030E00474FF000004FF0DB
:100300000001DFF868F1FEE7FEE7FEE7FEE7FEE743
:10031000FEE7FEE7FEE7FEE7FEE7FEE7FEE7FEE7B5
:10032000FEE7FEE7FEE7FEE7FEE7FEE7FEE7FEE7A5
:10033000FEE7FEE7FEE7FEE7FEE7FEE7FEE7FEE795
:10034000FEE7FEE7FEE7FEE7FEE7FEE7FEE7FEE785
:10035000FEE7FEE7FEE7FEE7FEE7FEE7FEE7FEE775
:10036000FEE7FEE7FEE7FEE7FEE7FEE7FEE7FEE765
:10037000FEE7FEE7FEE7FEE7FEE7FEE7FEE7FEE755
:10038000FEE7FEE7FEE7FEE7FEE7FEE7FEE7FEE745
:10039000FEE7FEE7FEE7FEE7FEE7FEE7FEE7FEE735
:1003A000FEE7FEE7FEE7FEE7FEE7FEE7FEE7FEE725
:1003B000FEE7FEE7FEE7FEE7FEE7FEE7FEE7FEE715
:1003C000FEE7FEE7FEE7FEE7FEE7FEE7FEE7FEE705
:1003D000FEE7FEE7FEE7FEE7FEE7FEE7FEE7FEE7F5
:1003E000FEE7FEE7FEE7FEE7FEE7FEE7FEE7FEE7E5
:1003F000FEE7FEE7FEE7FEE7FEE7FEE7FEE7FEE7D5
:10040000FEE7FEE7FEE7FEE7FEE7FEE7FEE7FEE7C4
:10041000FEE7FEE7FEE7FEE7FEE7FEE7FEE7FEE7B4
:10042000FEE7FEE7FEE7FEE7FEE7FEE7FEE7FEE7A4
:10043000FEE7FEE7FEE7FEE7FEE7000045070020D7
:10044000000000000000002000000020C80700207D
:10045000C8070020C8070020CC07002000000000CB
:10046000CC070020D0070020510700208D06002077
:1004700040F2CC73C2F200031A780AB90120187056
:10048000704700BF40F2C870C2F2000008B50368B0
:100490002BB140F20003C0F2000303B1984708BD3E
:1004A00080B500AF00F002F880BD00BF80B500AF9E
:1004B0004FF001004FF001014FF000024FF0000338
:1004C00000F06EF880BD00BF80B582B000AF7860EC
:1004D0004FF001004FF001017A687B6800F060F88E
:1004E00007F10807BD4680BD80B582B000AF7860D7
:1004F0004FF000004FF000017A687B6800F050F880
:1005000007F10807BD4680BD80B582B000AF7860B6
:100510004FF001004FF000017A687B6800F040F86E
:1005200007F10807BD4680BD80B582B000AF786096
:100530004FF000004FF001017A687B6800F030F85E
:1005400007F10807BD4680BD80B582B000AF786076
:100550007B684FEAD37213444FEA63034FF0010004
:100560004FF001017A6800F01BF807F10807BD465B
:1005700080BD00BF80B582B000AF78607B684FEA75
:10058000D37213444FEA63034FF001004FF00101AF
:100590001A467B6800F004F807F10807BD4680BDE5
:1005A00080B489B000AFBA607B600346FB730B4632
:1005B000BB7340F20003C4F205033B614FF000033C
:1005C0007B614FF00003BB614FF00003FB61BB6830
:1005D000002B1AD040F2A073C2F200031B68BA6865
:1005E00002FB03F248F21F53C5F2EB1383FB021325
:1005F0004FEA63114FEAE273C3EB010240F2A473C6
:10060000C2F200031B681344BB617B68002B1AD045
:1006100040F2A073C2F200031B687A6802FB03F287
:1006200048F21F53C5F2EB1383FB02134FEA631129
:100630004FEAE273C3EB010240F2A473C2F200037B
:100640001B681344FB61BB7B7A6982EA03037B610D
:10065000FB7B4FEA43037A6982EA03037B61FB6910
:100660004FEA83037A6982EA03037B61BB694FEA3D
:1006700043237A6982EA03037B613B697A691A60E2
:1006800007F12407BD4680BC704700BF80B582B02B
:1006900000AFFFF705FF4FF000033B604FF0000392
:1006A0007B603A6848F27F43C0F21E039A42D4BF8F
:1006B00000230123DBB23A6802F101023A60002B09
:1006C00006D07B6803F101037B604FF000033B60C1
:1006D0007B68062B31D801A252F823F0F9060020DE
:1006E000030700200D070020170700202107002026
:1006F0002B070020350700204FF03200FFF7E4FE03
:100700001FE04FF03200FFF7EFFE1AE04FF01E003F
:10071000FFF7FAFE15E04FF01E00FFF705FF10E0AF
:100720004FF02800FFF710FF0BE04FF02800FFF715
:1007300021FF06E0FFF7BAFE03E04FF000037B6005
:10074000AFE7AEE780B400AFBD4680BC704700BFE6
:1007500070B540F2C07640F2C075C2F20006C2F237
:100760000005761BB61006D0002455F8243001345D
:100770009847A642F9D840F2C07540F2C476C2F25A
:100780000005C2F20006761B00F00EF8B61006D087
:10079000002455F8243001349847A642F9D870BD9A
:1007A0003200000028000000F8B500BFF8BC08BC0B
:1007B0009E467047F8B500BFF8BC08BC9E4670471F
:0807C0008504002071040020F3
:0407C800000000002D
:04000005200002993C
:00000001FF
